:100000000C948A000C94B2000C94B2000C94B200D0
:100010000C94B2000C94B2000C94B2000C94B20098
:100020000C94B2000C94B2000C94B2000C94F50441
:100030000C94B2000C94B2000C94B2000C94B20078
:100040000C94AB040C94B2000C9479040C945304FB
:100050000C94B2000C94B2000C94B2000C94B20058
:100060000C94B2000C94B20008000000BE92244927
:10007000123EABAAAA2ABECDCCCC4C3E00000080DA
:10008000BEABAAAAAA3E00000000BF000000803F4D
:100090000000000000084178D3BB4387D1133D190D
:1000A0000E3CC3BD4282AD2B3E68EC8276BED98F3A
:1000B000E1A93E4C80EFFFBE01C4FF7F3F0000007E
:1000C0000000000000080002010000030407000017
:1000D00000000000000000000000250028002B00A8
:1000E00000000000240027002A0004040404040483
:1000F00004040202020202020303030303030102D7
:1001000004081020408001020408102001020408A5
:100110001020520711241FBECFEFD8E0DEBFCDBFA5
:1001200011E0A0E0B1E0E0EEFFE102C005900D9229
:10013000A837B107D9F722E0A8E7B1E001C01D92C6
:10014000AC35B207E1F710E0CAE8D0E004C021976F
:10015000FE010E94C30EC938D107C9F70E941D08CD
:100160000C94EE0F0C94000090E0FC01E250FF4F65
:10017000249186519F4FFC018491882399F090E04F
:10018000880F991FFC01E052FF4FA591B491FC012B
:10019000EA52FF4F859194918FB7F894EC91E22B3E
:1001A000EC938FBF0895AF92BF92CF92DF92EF9200
:1001B000FF920F931F93CF93DF936C017B018B0111
:1001C000040F151FEB015E01AE18BF08C017D10761
:1001D00059F06991D601ED91FC910190F081E02DEB
:1001E000C6010995892B79F7C501DF91CF911F9140
:1001F0000F91FF90EF90DF90CF90BF90AF90089558
:10020000FC01538D448D252F30E0842F90E0821B1C
:10021000930B541710F0CF96089501970895FC01A1
:10022000918D828D981761F0A28DAE0FBF2FB11DF9
:100230005D968C91928D9F5F9F73928F90E0089551
:100240008FEF9FEF0895FC01918D828D981731F00B
:10025000828DE80FF11D858D90E008958FEF9FEF5F
:100260000895FC01918D228D892F90E0805C9F4F35
:10027000821B91098F739927089585E991E00E9467
:10028000310121E0892B09F420E0822F089580E0DC
:1002900090E0892B29F00E943D0181110C9400000F
:1002A0000895FC01A48DA80FB92FB11DA35ABF4F0B
:1002B0002C91848D90E001968F739927848FA68965
:1002C000B7892C93A089B1898C91837080648C93B9
:1002D000938D848D981306C00288F389E02D808168
:1002E0008F7D80830895EF92FF920F931F93CF939A
:1002F000DF93EC0181E0888F9B8D8C8D98131AC061
:10030000E889F989808185FF15C09FB7F894EE8947
:10031000FF896083E889F9898081837080648083A4
:100320009FBF81E090E0DF91CF911F910F91FF90EF
:10033000EF900895F62E0B8D10E00F5F1F4F0F7397
:100340001127E02E8C8D8E110CC00FB607FCFACF52
:10035000E889F989808185FFF5CFCE010E9451019E
:10036000F1CFEB8DEC0FFD2FF11DE35AFF4FF08223
:100370009FB7F8940B8FEA89FB8980818062CFCF89
:10038000CF93DF93EC01888D8823B9F0AA89BB89CC
:10039000E889F9898C9185FD03C0808186FD0DC0B7
:1003A0000FB607FCF7CF8C9185FFF2CF808185FFD8
:1003B000EDCFCE010E945101E9CFDF91CF91089599
:1003C00090E0FC01EE53FF4F2491FC01E250FF4FFF
:1003D0003491FC01E651FF4FE491EE23C9F0222352
:1003E00039F0233001F1A8F4213019F1223029F13C
:1003F000F0E0EE0FFF1FEA52FF4FA591B4918FB7C7
:10040000F894EC91611126C030953E233C938FBF48
:1004100008952730A9F02830C9F0243049F7809199
:1004200080008F7D03C0809180008F778093800053
:10043000DFCF84B58F7784BDDBCF84B58F7DFBCFD5
:100440008091B0008F778093B000D2CF8091B000C0
:100450008F7DF9CF3E2BDACF8E3008F08E5087702B
:10046000806480937C0080917A00806480937A001D
:1004700080917A0086FDFCCF809178009091790080
:1004800008953FB7F89480917D0190917E01A091ED
:100490007F01B091800126B5A89B05C02F3F19F0C0
:1004A0000196A11DB11D3FBFBA2FA92F982F8827F4
:1004B000BC01CD01620F711D811D911D42E0660FCF
:1004C000771F881F991F4A95D1F708958F929F92A1
:1004D000AF92BF92CF92DF92EF92FF924B015C01FD
:1004E0000E9441026B017C010E9441026C197D094E
:1004F0008E099F09683E734081059105A8F321E0AC
:10050000821A9108A108B10888EEC80E83E0D81EAF
:10051000E11CF11C81149104A104B10429F7FF909E
:10052000EF90DF90CF90BF90AF909F908F90089505
:100530002FB7F8946091790170917A0180917B01D5
:1005400090917C012FBF0895089590E080E0089578
:10055000CF93DF93EC0160E08E810E94E00161E0C7
:100560008E810E94E00160E08E810E94E0018BE8B4
:1005700091E00197F1F7DF91CF910895CF92DF924B
:10058000EF92FF920F931F93CF93DF936C017C0147
:1005900087E0E80EF11CD0E0C0E0062F10E0B801C3
:1005A0000C2E02C0759567950A94E2F76170F70109
:1005B00081917F010E94E0012196C430D10579F735
:1005C000C601DF91CF911F910F91FF90EF90DF90C7
:1005D000CF900C94A802CF92DF92EF92FF920F93EC
:1005E0001F93CF93DF93EC01F62E642F8C810E9432
:1005F000E0018D818F3F19F060E00E94E0010F2D36
:1006000010E08F8584FF25C06E0187E0C80ED11CE5
:10061000F12CE12CB8010E2C02C0759567950A9457
:10062000E2F76170F60181916F010E94E001FFEF36
:10063000EF1AFF0A88E0E816F10461F7CE01DF91B6
:10064000CF911F910F91FF90EF90DF90CF900C947E
:10065000A802B80184E0759567958A95E1F7CE0107
:100660000E94BE026F2DCE01DF91CF911F910F919D
:10067000FF90EF90DF90CF900C94BE0240E0682F87
:1006800080E492E00C94EB0281E00E943E038BE355
:100690009FE10197F1F70895CF93DF93823029F41A
:1006A00090914F02986090934F0280935302109262
:1006B000540280E48093550280E18093560280E5E5
:1006C00080935702809144020E94B40080914502B9
:1006D0008F3F11F00E94B400809146020E94B40046
:1006E000C0E4D2E09E012054324080914F0284FD4C
:1006F0000AC084E090E02196281739073CF48E81E7
:100700000E94B400EFCF88E090E0F5CF8BE39DE04E
:100710000197F1F760E0809144020E94E00160E0FF
:10072000809146020E94E001809145028F3F19F0BE
:1007300060E00E94E00180914F0284FD34C063E0DC
:1007400080E492E00E94BE02CBE4D6E4CE010197A1
:10075000F1F763E080E492E00E94BE022197F1F796
:1007600063E080E492E00E94BE0283E592E001979C
:10077000F1F762E080E492E00E94BE0280914F02B5
:1007800080620E943E0384E0809350028CE00E94CD
:100790003E030E94440382E08093510286E0DF9191
:1007A000CF910C943E0380620E943E038BE496E45A
:1007B0000197F1F780914F0280620E943E0383E52A
:1007C00092E00197F1F780914F0280620E943E0310
:1007D000D5CF90915302691710F06FEF690FE62F94
:1007E000F0E0E05CFD4F9489890F80680C943E0333
:1007F00041E00E94EB0281E090E00895FB0101904E
:100800000020E9F73197AF01461B570BDC01ED9152
:10081000FC910280F381E02D09948F929F92AF9218
:10082000BF920F931F93CF93DF93CDB7DEB7A197FE
:100830000FB6F894DEBF0FBECDBF19A2423008F448
:100840004AE08E010F5D1F4F842E912CB12CA12CFC
:10085000A50194010E94820EE62FB901CA01EA3077
:1008600004F5E05DD801EE938D01232B242B252B7D
:1008700079F790E080E0109729F0BD0180E492E0E4
:100880000E94FE03A1960FB6F894DEBF0FBECDBF47
:10089000DF91CF911F910F91BF90AF909F908F905C
:1008A0000895E95CDFCF1F920F920FB60F921124CB
:1008B0002F933F934F935F936F937F938F939F9368
:1008C000AF93BF93EF93FF9385E991E00E945101AD
:1008D000FF91EF91BF91AF919F918F917F916F9118
:1008E0005F914F913F912F910F900FBE0F901F90EE
:1008F00018951F920F920FB60F9211242F938F937A
:100900009F93EF93FF93E091A501F091A601808161
:10091000E091AB01F091AC0182FD1BC09081809110
:10092000AE018F5F8F732091AF01821741F0E0918C
:10093000AE01F0E0EB56FE4F958F8093AE01FF9134
:10094000EF919F918F912F910F900FBE0F901F905D
:1009500018958081F4CF1F920F920FB60F92112439
:100960002F933F938F939F93AF93BF938091790180
:1009700090917A01A0917B01B0917C013091780136
:1009800023E0230F2D3758F50196A11DB11D2093AB
:1009900078018093790190937A01A0937B01B093C1
:1009A0007C0180917D0190917E01A0917F01B091A9
:1009B00080010196A11DB11D80937D0190937E0160
:1009C000A0937F01B0938001BF91AF919F918F91D0
:1009D0003F912F910F900FBE0F901F90189526E812
:1009E000230F0296A11DB11DD2CF1F920F920FB6F9
:1009F0000F9211242F923F924F925F926F927F92AB
:100A00008F929F92AF92BF92CF92DF92EF92FF921E
:100A10000F931F932F933F934F935F936F937F9306
:100A20008F939F93AF93BF93EF93FF93CF93DF93F6
:100A300000D000D0CDB7DEB7F894209132023091CB
:100A400033023A832983F12CE12CD12CC12CA981CA
:100A5000BA818C918C151D04C1F0BCF01196ED91FA
:100A6000FC91EE0DFF1DFC83EB8380810E942C0224
:100A7000AB81BC8119969C938E931897BFEFCB1ACC
:100A8000DB0AECE3EE0EF11CE2CF312C212C10E05E
:100A900000E050E6852E5AEE952EA12CB12CA981AE
:100AA000BA818C918017110609F00CF4CFC1119610
:100AB000ED91FC91E20DF31DFC83EB8340A851A85E
:100AC00062A873A8808D918DA28DB38D480E591E9A
:100AD0006A1E7B1E40AA51AA62AA73AA84899589BC
:100AE000A689B7897201E81AF90A868597850C9755
:100AF000978786878685978597FDBEC0868597856B
:100B0000873F99400CF0BBC0AB81BC811E968D9194
:100B10009C91EB81FC819787868780859185C0AC0D
:100B2000D1AC8C159D05CCF48285938565E070E091
:100B30000E946E0ECB01880F991F680F791F6E15EA
:100B40007F055CF42085318586A997A92817390788
:100B500024F48085918597AB86ABAB81BC811896D8
:100B60008D919C911997C816D9069CF418962D91D1
:100B70003C911997D4968D919C91D59782179307A4
:100B800044F418968D919C911997D5969C938E93C9
:100B9000D497BBEFEB16F1040CF4A7C0EB81FC81FA
:100BA00080859185C816D9060CF09FC08485811177
:100BB0009CC08285938565E070E00E946E0ECB013B
:100BC000880F991F680F791F6E157F050CF08DC077
:100BD00021E0248784899589A689B789F201E81BD9
:100BE000F90BAB81BC811B96FC93EE931A97FD0128
:100BF000448A558A668A778A83AD882371F013AE5A
:100C00007C96CD01C096AB81BC811A962D913C910A
:100C1000219331938E179F07B1F7EB81FC8182AD51
:100C2000882381F112AE21E023AFAB81BC81129603
:100C30008D919C91139797FD04C01C966C910E9416
:100C4000E001EB81FC81E480F580F7FCD5C086856E
:100C500097856AE070E00E946E0E7C836B838E2D18
:100C60000E94B4002B813C81232B09F095C060E0E9
:100C70008E2D0E94E001C0C090E080E04ACF86EF58
:100C800099E047CFEB81FC817C964B815C81425D92
:100C90005F4F30E020E08281938181939193280F10
:100CA000391F4E175F07B9F7AB81BC811A968D913A
:100CB0009C911B979F969C938E939E97820F931F58
:100CC0006AE070E00E945A0E9B0150E040E0C501CE
:100CD000B4010E94A40EEB81FC813783268321E0BE
:100CE000258786EF99E097878687AB81BC81189628
:100CF0008D919C9119978C159D053CF51C968C91B6
:100D00001C97882311F11C961C921C97D6964D9126
:100D10005C91D797D4962D913C91D597241B350B98
:100D200053963C932E93529752968D919C9197FD9A
:100D3000019695958795840F951FEB81FC8191AF66
:100D400080AF95AB84AB97AB86ABF5ECEF16F9E0D3
:100D5000FF060CF46ACFAB81BC8150968D919C91BB
:100D60005197D9969C938E93D897E0E0F2E0D59670
:100D7000FC93EE93D497D796FC93EE93D697549624
:100D80004D925D926D927C925797E1E0DA96EC93EA
:100D9000DA97DB961C9249CF8B819C818F3F91051E
:100DA00011F461E065CFF701FF27EE53FF4FE491A7
:100DB000E33071F150F4E130D1F0E23019F1AB8160
:100DC000BC81A038B1056CF752CFE73069F1E8304B
:100DD000A1F1E430A1F780918000806280938000CF
:100DE0002B813C8130938B0020938A0005C084B511
:100DF000806884BD9B8197BD0F5F1F4FBCE32B0EA6
:100E0000311C4DCE84B5806284BDAB81A8BDF4CFCA
:100E100080918000806880938000EB81FC81F0935A
:100E20008900E0938800E8CF8091B00080688093CB
:100E3000B0003B813093B300DFCF8091B00080627F
:100E40008093B0008B818093B400D6CF81E0E9819C
:100E5000FA81878378940F900F900F900F90DF9115
:100E6000CF91FF91EF91BF91AF919F918F917F9122
:100E70006F915F914F913F912F911F910F91FF9033
:100E8000EF90DF90CF90BF90AF909F908F907F902A
:100E90006F905F904F903F902F900F900FBE0F90EC
:100EA0001F901895109298011092970188EE93E088
:100EB000A0E0B0E08093990190939A01A0939B01E8
:100EC000B0939C018CE091E0909396018093950102
:100ED00085EC90E09093A2018093A10184EC90E0D6
:100EE0009093A4018093A30180EC90E09093A601DD
:100EF0008093A50181EC90E09093A8018093A701D5
:100F000082EC90E09093AA018093A90186EC90E096
:100F10009093AC018093AB011092AE011092AF019F
:100F20001092B0011092B10110924302109242024D
:100F30008EE191E090934102809340028DE0809396
:100F400044028FEF809345028CE08093460285E057
:100F50008093470284E08093480283E080934902B3
:100F600082E080934A0210924B0210924C0210923F
:100F70004D0210924E0210924F0281E00E944C03EB
:100F800010923D0210923C0282E090E090933F026A
:100F900080933E0284E392E0909333028093320286
:100FA00081E0809334028CE390E00E94C90EFC0142
:100FB0008EE090E0918380838FEF9FEF9383828315
:100FC0009583848382E090E0A0E0B0E0808F918FF1
:100FD000A28FB38FDF015C96CF01C0961D921D9248
:100FE0008A179B07D9F715861782168288E592E043
:100FF00093878287148610AA11AA12AA13AA148AA8
:10100000158A168A178A80E092E095AB84AB97AB7D
:1010100086AB86E292E0918B808B91AF80AF84E6C5
:1010200090E0938B828B81E082AF13AE1786168699
:10103000F0933602E09335020895789484B5826087
:1010400084BD84B5816084BD85B5826085BD85B56C
:10105000816085BD80916E00816080936E001092EA
:101060008100809181008260809381008091810065
:1010700081608093810080918000816080938000F6
:101080008091B10084608093B1008091B000816054
:101090008093B00080917A00846080937A00809180
:1010A0007A00826080937A0080917A0081608093D8
:1010B0007A0080917A00806880937A001092C10053
:1010C000E091A501F091A60182E08083E091A10169
:1010D000F091A2011082E091A301F091A4018FECA4
:1010E00080831092AD01E091A901F091AA0186E000
:1010F0008083E091A701F091A801808180618083C5
:10110000E091A701F091A801808188608083E0913F
:10111000A701F091A801808180688083E091A701F8
:10112000F091A80180818F7D808382E00E944C0332
:1011300088E00E94B40089E00E94B4008AE00E9426
:10114000B4008BE00E94B40086E00E94B40087E007
:101150000E94B400E0913502F091360211821082B3
:10116000F89486E292E0918B808B91AF80AF789477
:1011700083E393E1A5E9B3E480938501909386012D
:10118000A0938701B0938801F12CE12CD12CC12CC4
:10119000809134028C151D0431F12CF1C09135027F
:1011A000D0913602CE0DDF1D8A819B8197FD06C04E
:1011B0000E94B40060E08A810E94E0018C819D81E0
:1011C00097FD0AC00E94B400CC818C2F0E94B4000D
:1011D00060E08C2F0E94E0012FEFC21AD20A8CE34C
:1011E000E80EF11CD5CF0E9441026053784F8F4F1B
:1011F0009F4F609337027093380280933902909327
:101200003A0210923B0210928000109282008CE011
:10121000809381008CE790E0909389008093880010
:1012200082E080936F0078940E94440366E271E04C
:1012300080E492E00E94FE0368EE73E080E090E0BC
:101240000E9466020E94440365E371E080E492E03C
:101250000E94FE0361E080E00E94E90364E471E023
:1012600080E492E00E94FE0360ED77E080E090E091
:101270000E9466020E9444030E94980260939101BA
:10128000709392018093930190939401C0E0D0E019
:101290000E949802C0909101D0909201E090930139
:1012A000F09094016C197D098E099F09683E734086
:1012B0008105910508F439C10E949802609391015B
:1012C0007093920180939301909394018FE00E9418
:1012D0002C02BC01990F880B990B0E94AE0C2AE0DE
:1012E00038E240EA5BE30E94B30D6B017C01AC0184
:1012F0009B0160E070E080EA90E40E94990B20E09E
:1013000030E44CE156E40E940B0C9B01AC01C70198
:10131000B6010E940B0C20E030E44CE156E40E9440
:101320000B0C0E946B0D4B015C01209185013091EB
:101330008601409187015091880160E070E080E86B
:101340009FE30E940B0C6B017C0120E030E24DE733
:1013500055E4C501B4010E940B0C9B01AC01C7010F
:10136000B6010E949A0B9B01AC0160E070E080E83E
:101370009FE30E940B0C23E333E948E853E40E9407
:10138000990B609381017093820180938301909304
:10139000840160E087E00E94E90360E571E080E499
:1013A00092E00E94FE0361E087E00E94E903C090A2
:1013B0008101D0908201E0908301F0908401A70127
:1013C0009601C701B6010E94200E67E571E0811108
:1013D0001AC046015701E894B7F82FEF3FEF4FE7E7
:1013E0005FE7C501B4010E94200E811125C02FEFD7
:1013F0003FEF4FE75FE7C501B4010E94060C1816E6
:10140000DCF46BE571E080E492E00E94FE0361E0B1
:101410008CE00E94E90363E671E080E492E00E94C0
:10142000FE03209709F434CF0E943D01882309F47C
:101430002FCF0E9400002CCF2FEF3FEF4FE75FE44C
:10144000C701B6010E945E0D18161CF46FE571E02D
:10145000DACF2FEF3FEF4FE75FECC701B6010E94F5
:10146000060C87FDF3CF20E030E0A901C701B601EB
:101470000E94060C87FF0AC041E06DE280E492E022
:101480000E94EB02F7FAF094F7F8F0942AE037EDB7
:1014900043EA5BE3C701B6010E949A0B4B015C0172
:1014A0000E947D0C6B017C010E94AC0C9B01AC0185
:1014B000C501B4010E94990B4B015C014AE0C701D0
:1014C000B6010E940D0441E06EE280E492E00E94C9
:1014D000EB0220E030E040E251E4C501B4010E949B
:1014E000B30D4B015C010E947D0C6B01F12CE12CD2
:1014F0004AE0C701B6010E940D04C701B6010E946F
:10150000AC0C9B01AC01C501B4010E94990B20E019
:1015100030E040E251E40E94B30D0E947D0C90E067
:1015200080E04AE00E940D0472CF0E949802C090B1
:101530008D01D0908E01E0908F01F09090016C1998
:101540007D098E099F09683E73408105910508F465
:1015500049C00E94980260938D0170938E01809320
:101560008F0190939001E0913502F0913602C68090
:10157000D780F894858515867894882309F451CF0F
:1015800060E080E00E94E90369E671E080E492E0B7
:101590000E94FE0361E080E00E94E9036EE671E0D4
:1015A00080E492E00E94FE0361E080E00E94E90393
:1015B0000D2C000CEE08FF084AE0C701B601F7FE4B
:1015C0000EC041E06DE280E492E00E94EB026627EB
:1015D0007727CB016C197D098E099F094AE00E948B
:1015E0000D041FCF0E949802C0908901D0908A01FB
:1015F000E0908B01F0908C016C197D098E099F0998
:10160000643171058105910508F40BCF0E949802A1
:101610006093890170938A0180938B0190938C0170
:1016200085E991E00E943101181619060CF0F9CEF7
:10163000809101018093000185E991E00E940F01F2
:1016400080930101682F85E991E00E94730164E7AE
:1016500071E085E991E00E94FE0380910101909183
:101660000001891709F4DDCE8C3409F451C01CF552
:10167000873409F44DC09CF48234C9F161E08634AA
:1016800009F0CFCE88E00E94E00160E089E00E948E
:10169000E00161E08AE00E94E00160E035C0893449
:1016A000C9F1D4F18A3409F0BCCE60E088E00E9430
:1016B000E00161E00DC08535B9F17CF4823551F16E
:1016C00060E0833509F0ADCE88E00E94E00160E083
:1016D00089E00E94E00160E0DDCF853741F1873786
:1016E00009F1873509F09DCE61E087E00EC060E02A
:1016F00088E00E94E00161E089E00E94E00160E092
:101700008AE00E94E00161E08BE00E94E00189CE66
:1017100060E0B8CF61E0D8CF60E088E00E94E001EF
:1017200060E0EACF60E0E1CF61E086E0EECF60E02C
:10173000FCCF5058BB27AA270E94B10B0C94240D54
:101740000E94160D38F00E941D0D20F039F49F3FC5
:1017500019F426F40C94130D0EF4E095E7FB0C94A9
:101760000D0DE92F0E94350D58F3BA176207730764
:101770008407950720F079F4A6F50C94570D0EF424
:10178000E0950B2EBA2FA02D0B01B90190010C0191
:10179000CA01A0011124FF27591B99F0593F50F4A9
:1017A000503E68F11A16F040A22F232F342F442701
:1017B000585FF3CF469537952795A795F0405395F9
:1017C000C9F77EF41F16BA0B620B730B840BBAF0C9
:1017D0009150A1F0FF0FBB1F661F771F881FC2F734
:1017E0000EC0BA0F621F731F841F48F48795779548
:1017F0006795B795F7959E3F08F0B0CF9395880F02
:1018000008F09927EE0F9795879508950E94E90CA7
:1018100008F481E008950E941F0C0C94240D0E948E
:101820001D0D58F00E94160D40F029F45F3F29F07D
:101830000C940D0D51110C94580D0C94130D0E9425
:10184000350D68F39923B1F3552391F3951B550B8F
:10185000BB27AA2762177307840738F09F5F5F4F83
:10186000220F331F441FAA1FA9F335D00E2E3AF0C2
:10187000E0E832D091505040E695001CCAF72BD0DA
:10188000FE2F29D0660F771F881FBB1F261737072B
:101890004807AB07B0E809F0BB0B802DBF01FF275D
:1018A00093585F4F3AF09E3F510578F00C940D0D20
:1018B0000C94580D5F3FE4F3983ED4F386957795EA
:1018C0006795B795F7959F5FC9F7880F911D969516
:1018D000879597F90895E1E0660F771F881FBB1F72
:1018E000621773078407BA0720F0621B730B840B1F
:1018F000BA0BEE1F88F7E09508950E943D0D88F021
:101900009F5798F0B92F9927B751B0F0E1F0660FC3
:10191000771F881F991F1AF0BA95C9F714C0B13004
:1019200091F00E94570DB1E008950C94570D672F68
:10193000782F8827B85F39F0B93FCCF38695779533
:101940006795B395D9F73EF490958095709561951C
:101950007F4F8F4F9F4F0895E89409C097FB3EF447
:1019600090958095709561957F4F8F4F9F4F9923EC
:10197000A9F0F92F96E9BB279395F695879577956A
:101980006795B795F111F8CFFAF4BB0F11F460FF2A
:101990001BC06F5F7F4F8F4F9F4F16C0882311F082
:1019A00096E911C0772321F09EE8872F762F05C096
:1019B000662371F096E8862F70E060E02AF09A9531
:1019C000660F771F881FDAF7880F9695879597F926
:1019D0000895990F0008550FAA0BE0E8FEEF1616C0
:1019E0001706E807F907C0F012161306E407F50713
:1019F00098F0621B730B840B950B39F40A2661F087
:101A0000232B242B252B21F408950A2609F4A14029
:101A1000A6958FEF811D811D089597F99F6780E836
:101A200070E060E008959FEF80EC089500240A9430
:101A30001616170618060906089500240A941216A9
:101A40001306140605060895092E0394000C11F4DC
:101A5000882352F0BB0F40F4BF2B11F460FF04C089
:101A60006F5F7F4F8F4F9F4F089557FD9058440FE2
:101A7000551F59F05F3F71F04795880F97FB991FED
:101A800061F09F3F79F087950895121613061406AA
:101A9000551FF2CF4695F1DF08C016161706180637
:101AA000991FF1CF86957105610508940895E89412
:101AB000BB2766277727CB0197F908950E94E90C89
:101AC00008F48FEF089516F00C94250E0C94130D66
:101AD00068940C940D0D0E943D0DA8F39923C1F359
:101AE000AEF3DF93CF931F930F93FF92C92FDD27A0
:101AF00088232AF02197660F771F881FDAF720E0E6
:101B000030E040E85FEB9FE3883920F0803E38F01A
:101B100021968F770E949A0BE8E6F0E004C00E94BD
:101B20009A0BE5E9F0E00E94330E8B01BE01EC0157
:101B3000FB2E6F5771097595771F880B990B0E94C3
:101B4000AE0C28E132E741E35FE30E94C60DAF2D02
:101B50009801AE01FF900F911F91CF91DF910E94EC
:101B6000B10B0C94240D0E94C60D0C94240D0E9400
:101B7000160D38F00E941D0D20F0952311F00C94E5
:101B80000D0D0C94130D11240C94580D0E94350D5D
:101B900070F3959FC1F3950F50E0551F629FF001C0
:101BA000729FBB27F00DB11D639FAA27F00DB11DD9
:101BB000AA1F649F6627B00DA11D661F829F222762
:101BC000B00DA11D621F739FB00DA11D621F839FE9
:101BD000A00D611D221F749F3327A00D611D231FBF
:101BE000849F600D211D822F762F6A2F11249F570D
:101BF00050409AF0F1F088234AF0EE0FFF1FBB1F10
:101C0000661F771F881F91505040A9F79E3F5105CE
:101C100080F00C940D0D0C94580D5F3FE4F3983E4A
:101C2000D4F3869577956795B795F795E7959F5F78
:101C3000C1F7FE2B880F911D9695879597F908950A
:101C40000E94E90C880B990B08959F3F31F0915049
:101C500020F4879577956795B795880F911D969590
:101C6000879597F90895DF93CF931F930F93FF9272
:101C7000EF92DF927B018C01689406C0DA2EEF01AF
:101C80000E94C60DFE01E894A591259135914591DC
:101C90005591A6F3EF010E94B10BFE019701A80137
:101CA000DA9469F7DF90EF90FF900F911F91CF9139
:101CB000DF910895AA1BBB1B51E107C0AA1FBB1FE0
:101CC000A617B70710F0A61BB70B881F991F5A95C8
:101CD000A9F780959095BC01CD01089597FB072E3B
:101CE00016F4009407D077FD09D00E945A0E07FC25
:101CF00005D03EF4909581959F4F0895709561951C
:101D00007F4F0895A1E21A2EAA1BBB1BFD010DC037
:101D1000AA1FBB1FEE1FFF1FA217B307E407F5079B
:101D200020F0A21BB30BE40BF50B661F771F881F77
:101D3000991F1A9469F760957095809590959B010D
:101D4000AC01BD01CF010895052E97FB1EF4009450
:101D50000E94BB0E57FD07D00E94820E07FC03D0E5
:101D60004EF40C94BB0E50954095309521953F4F05
:101D70004F4F5F4F089590958095709561957F4F77
:101D80008F4F9F4F0895EE0FFF1F0590F491E02DA8
:101D900009940F931F93CF93DF938230910510F432
:101DA00082E090E0E0915A02F0915B0230E020E0A6
:101DB000B0E0A0E0309799F42115310509F44AC04C
:101DC000281B390B24303105D8F58A819B81611598
:101DD000710589F1FB0193838283FE0111C040816B
:101DE00051810281138148175907E0F048175907BC
:101DF00099F4109761F012960C93129713961C9316
:101E00003296CF01DF91CF911F910F9108950093EA
:101E10005A0210935B02F4CF2115310551F042179D
:101E2000530738F0A901DB019A01BD01DF01F80178
:101E3000C1CFEF01F9CF90935B0280935A02CDCFCF
:101E4000FE01E20FF31F81939193225031093983F0
:101E50002883D7CF2091580230915902232B41F487
:101E600020910401309105013093590220935802CA
:101E700020910201309103012115310541F42DB764
:101E80003EB74091060150910701241B350BE091AC
:101E90005802F0915902E217F307A0F42E1B3F0BF2
:101EA0002817390778F0AC014E5F5F4F24173507CC
:101EB00048F04E0F5F1F5093590240935802819390
:101EC00091939FCFF0E0E0E09CCFCF93DF9300971A
:101ED000E9F0FC01329713821282A0915A02B0916C
:101EE0005B02ED0130E020E01097A1F42081318108
:101EF000820F931F209158023091590228173907F9
:101F000009F061C0F0935902E0935802DF91CF913C
:101F10000895EA01CE17DF07E8F54A815B819E014B
:101F200041155105B1F7E901FB83EA8349915991C4
:101F3000C40FD51FEC17FD0761F4808191810296D3
:101F4000840F951FE90199838883828193819B8304
:101F50008A83F0E0E0E012968D919C9113970097B0
:101F6000B9F52D913C911197CD010296820F931FE7
:101F700020915802309159022817390739F63097C5
:101F800051F510925B0210925A02B0935902A0933D
:101F90005802BCCFD383C28340815181840F951FE7
:101FA000C817D90761F44E5F5F4F88819981480F48
:101FB000591F518340838A819B819383828321159A
:101FC000310509F0B0CFF0935B02E0935A029ECF47
:101FD000FD01DC01C0CF13821282D7CFF894FFCF6E
:101FE000415300005C028000000000007301D30038
:101FF0000001C00131010F01230100000000F803BE
:10200000D300A502A402202057454C434F4D452044
:102010004445415200202057652061726520686563
:102020007265200020202020666F7220796F750075
:1020300054656D703A20006E616E00696E66006FC7
:1020400076660020432020200042504D3A00202098
:08205000202020000D0A000011
:00000001FF
