:100000000C9463000C948B000C948B000C940704EC
:100010000C9407040C9407040C948B000C948B0034
:100020000C948B000C948B000C948B000C948B0024
:100030000C948B000C948B000C948B000C948B0014
:100040000C94BD030C948B000C948B030C946503EF
:100050000C948B000C948B000C948B000C948B00F4
:100060000C948B000C948B000000000024002700EF
:100070002A0000000008000201000003040700003D
:1000800000000000000000000000230026002900FE
:1000900000000000250028002B00040404040404D0
:1000A0000404020202020202030303030303010227
:1000B00004081020408001020408102001020408F6
:1000C0001020C404E50711241FBECFEFD8E0DEBF27
:1000D000CDBF11E0A0E0B1E0E6E1F9E102C005909A
:1000E0000D92A834B107D9F722E0A8E4B1E001C02D
:1000F0001D92AF35B207E1F710E0C2E6D0E004C0D0
:100100002197FE010E947D0AC136D107C9F70E94DE
:100110009E050C947E0C0C940000AF92BF92CF927F
:10012000DF92EF92FF920F931F93CF93DF936C01B7
:100130007B018B01040F151FEB015E01AE18BF0898
:10014000C017D10759F06991D601ED91FC9101904A
:10015000F081E02DC6010995892B79F7C501DF9162
:10016000CF911F910F91FF90EF90DF90CF90BF90B4
:10017000AF900895FC01538D448D252F30E0842FDE
:1001800090E0821B930B541710F0CF9608950197BF
:100190000895FC01918D828D981761F0A28DAE0FAC
:1001A000BF2FB11D5D968C91928D9F5F9F73928F33
:1001B00090E008958FEF9FEF0895FC01918D828D5F
:1001C000981731F0828DE80FF11D858D90E008952C
:1001D0008FEF9FEF0895FC01918D228D892F90E084
:1001E000805C9F4F821B91098F739927089589E93D
:1001F00091E00E94EB0021E0892B09F420E0822F9E
:10020000089580E090E0892B29F00E94F700811189
:100210000C9400000895FC01A48DA80FB92FB11D06
:10022000A35ABF4F2C91848D90E001968F7399272C
:10023000848FA689B7892C93A089B1898C9183700A
:1002400080648C93938D848D981306C00288F38903
:10025000E02D80818F7D80830895EF92FF920F9330
:100260001F93CF93DF93EC0181E0888F9B8D8C8D62
:1002700098131AC0E889F989808185FF15C09FB756
:10028000F894EE89FF896083E889F9898081837019
:10029000806480839FBF81E090E0DF91CF911F91C8
:1002A0000F91FF90EF900895F62E0B8D10E00F5FE9
:1002B0001F4F0F731127E02E8C8D8E110CC00FB6BF
:1002C00007FCFACFE889F989808185FFF5CFCE0157
:1002D0000E940B01F1CFEB8DEC0FFD2FF11DE35AC6
:1002E000FF4FF0829FB7F8940B8FEA89FB898081DA
:1002F0008062CFCFCF93DF93EC01888D8823B9F054
:10030000AA89BB89E889F9898C9185FD03C0808120
:1003100086FD0DC00FB607FCF7CF8C9185FFF2CF9D
:10032000808185FFEDCFCE010E940B01E9CFDF91E7
:10033000CF91089590E0FC01EE58FF4F2491FC010D
:10034000E255FF4F3491FC01E656FF4FE491EE2356
:10035000C9F0222339F0233001F1A8F4213019F13A
:10036000223029F1F0E0EE0FFF1FE057FF4FA5917B
:10037000B4918FB7F894EC91611126C030953E236B
:100380003C938FBF08952730A9F02830C9F024305E
:1003900049F7809180008F7D03C0809180008F7726
:1003A00080938000DFCF84B58F7784BDDBCF84B5A9
:1003B0008F7DFBCF8091B0008F778093B000D2CF3C
:1003C0008091B0008F7DF9CF3E2BDACFCF93DF93B2
:1003D00090E0FC01E255FF4F249186569F4FFC01AF
:1003E00084918823D1F090E0880F991FFC01E8598F
:1003F000FF4FA591B491FC01E057FF4FC591D491F7
:1004000061110EC09FB7F8948C91E22FE0958E2376
:100410008C932881E223E8839FBFDF91CF910895D9
:100420008FB7F894EC91E22BEC938FBFF6CF3FB7E8
:10043000F8948091910190919201A0919301B091D3
:10044000940126B5A89B05C02F3F19F00196A11D68
:10045000B11D3FBFBA2FA92F982F8827BC01CD010E
:10046000620F711D811D911D42E0660F771F881F6D
:10047000991F4A95D1F708958F929F92AF92BF929C
:10048000CF92DF92EF92FF926B017C010E941702E4
:100490004B015C01C114D104E104F104B9F00E94E4
:1004A0001702681979098A099B09683E734081051A
:1004B000910580F321E0C21AD108E108F10888EE25
:1004C000880E83E0981EA11CB11CE4CFFF90EF9032
:1004D000DF90CF90BF90AF909F908F900895209124
:1004E0008A0130918B012817390771F490918901A5
:1004F00080918801981741F0E0918901F0E0E85B74
:10050000FE4F808190E008958FEF9FEF089508954A
:10051000EF92FF920F931F93CF93DF93DC015C96D2
:10052000ED90FC905D97E114F10479F481E090E0A6
:1005300013969C938E93129790E080E0DF91CF9179
:100540001F910F91FF90EF9008955196ED91FC91BE
:10055000529750968C915097982F90950FB75E9622
:100560002C915E97122F127021FD6095F8942081D6
:10057000112319F1282B2083E7012197F1F728E0B7
:10058000462F50E0308160FF1AC0382B3083E701DE
:100590002197F1F7BA0175956795215089F71123D5
:1005A00081F08081892380830FBF5C968D919C911F
:1005B0000197F1F781E090E0C1CF2923DCCF392307
:1005C000E5CF9081892BEFCF20918A0130918B016B
:1005D0002817390761F4809188012091890190E002
:1005E000805C9F4F821B91098F739927089590E03B
:1005F00080E0089520918A0130918B0128173907F6
:10060000B9F49091890180918801981789F0E0915F
:100610008901F0E0E85BFE4F80812091890130E0A4
:100620002F5F3F4F2F7333272093890190E0089568
:100630008FEF9FEF089590E080E00895CF93DF93D0
:10064000EC018091360290913702009759F0209189
:100650003802309139022C173D0720F081E0DF91FC
:10066000CF910895BE016F5F7F4F0E94A80B009746
:1006700089F09093370280933602D0933902C09369
:10068000380220913A0230913B02232B39F7FC01CA
:100690001082E4CF80E0E3CF20913A0230913B0218
:1006A000232B39F421E0FC018081882361F020E0D4
:1006B0000AC0BC0180913602909137020E946E0CF4
:1006C00021E0892BA1F7822F08951F920F920FB678
:1006D0000F9211242F933F934F935F936F937F93C8
:1006E0008F939F93AF93BF93EF93FF9389E991E02B
:1006F0000E940B01FF91EF91BF91AF919F918F915C
:100700007F916F915F914F913F912F910F900FBE0D
:100710000F901F9018951F920F920FB60F921124F1
:100720002F938F939F93EF93FF93E091A901F09103
:10073000AA018081E091AF01F091B00182FD1BC060
:1007400090818091B2018F5F8F732091B3018217E6
:1007500041F0E091B201F0E0E756FE4F958F8093B3
:10076000B201FF91EF919F918F912F910F900FBE4A
:100770000F901F9018958081F4CF1F920F920FB6A3
:100780000F9211242F933F938F939F93AF93BF9317
:1007900080918D0190918E01A0918F01B091900177
:1007A00030918C0123E0230F2D3758F50196A11DC0
:1007B000B11D20938C0180938D0190938E01A093A5
:1007C0008F01B09390018091910190919201A0913D
:1007D0009301B09194010196A11DB11D80939101E7
:1007E00090939201A0939301B0939401BF91AF9124
:1007F0009F918F913F912F910F900FBE0F901F905F
:10080000189526E8230F0296A11DB11DD2CF1F9285
:100810000F920FB60F9211242F933F934F935F9334
:100820006F937F938F939F93AF93BF93EF93FF93B8
:10083000E0918A01F0918B01309749F0A685B78548
:100840008585968D91FF14C09C918923A1F4FF9119
:10085000EF91BF91AF919F918F917F916F915F9138
:100860004F913F912F910F900FBE0F901F901895B1
:100870009C91892361F7A389B4899C91858980958E
:1008800089238C93868997890197F1F7608D718D03
:10089000A685B785558538E020E0CB010197F1F7B3
:1008A000822F90E095958795282F4C91452309F04C
:1008B0002068315091F7868D81FD209580918801C7
:1008C00090E001968F73992730918901381799F03C
:1008D000A0918801B0E0A85BBE4F2C938093880163
:1008E000828D938D0197F1F7A389B4898C919589B5
:1008F000892B8C93ACCF868D8160868FF1CFCF9280
:10090000DF92EF92FF920F931F93E82FF92F05C00C
:10091000015011092109310961F190819623941741
:10092000B9F305C0015011092109310911F1908174
:1009300096239413F7CFC12CD12CE12CF12C0AC0B3
:100940008FEFC81AD80AE80AF80A0C151D052E05FB
:100950003F0579F080818623841791F36C2D7D2DDE
:100960008E2D9F2D1F910F91FF90EF90DF90CF90D4
:10097000089560E070E080E090E01F910F91FF909B
:10098000EF90DF90CF90089510929C0110929B0100
:1009900088EE93E0A0E0B0E080939D0190939E01EB
:1009A000A0939F01B093A0012EE031E030939A0113
:1009B0002093990125EC30E03093A6012093A50106
:1009C00024EC30E03093A8012093A70120EC30E024
:1009D0003093AA012093A90121EC30E03093AC01BF
:1009E0002093AB0122EC30E03093AE012093AD01B7
:1009F00026EC30E03093B0012093AF011092B201A9
:100A00001092B3011092B4011092B50110923F02FE
:100A100010923E028093400290934102A0934202C2
:100A2000B093430280E291E090933D0280933C02B8
:100A300010925302109252021092550210925402D8
:100A400010925702109256021092590210925802B8
:100A500060915A026E7F6D7F60935A026695617055
:100A600081E068270E949A0161E081E00E94E6012E
:100A7000EFEAF0E0E491E0934C02EBE9F0E0E4917E
:100A8000F0E0EE0FFF1FE057FF4F85919491909398
:100A90004E0280934D0260E080E00E94E60180916A
:100AA0005A0281FD04C061E080E00E949A01109228
:100AB0004802EEEAF0E0E491E0934902EAE9F0E06E
:100AC000E491F0E0EE0FFF1FEA57FF4F85919491FC
:100AD00090934B0280934A02109237021092360292
:100AE000109239021092380210923B0210923A0290
:100AF00090E080E00E941E03209136023091370280
:100B0000811113C02115310519F0C9010E941F0B75
:100B1000109237021092360210923B0210923A0263
:100B20001092390210923802089510923B021092EE
:100B30003A0260E371E0C9010C94770CCF93DF9324
:100B400000D0CDB7DEB7789484B5826084BD84B51B
:100B5000816084BD85B5826085BD85B5816085BDB8
:100B600080916E00816080936E0010928100809170
:100B700081008260809381008091810081608093F8
:100B80008100809180008160809380008091B1001D
:100B900084608093B1008091B00081608093B00048
:100BA00080917A00846080937A0080917A008260DC
:100BB00080937A0080917A00816080937A0080919E
:100BC0007A00806880937A001092C100E091A901B8
:100BD000F091AA0182E08083E091A501F091A60145
:100BE0001082E091A701F091A8018FEC8083109210
:100BF000B101E091AD01F091AE0186E08083E0911A
:100C0000AB01F091AC01808180618083E091AB0108
:100C1000F091AC01808188608083E091AB01F0911C
:100C2000AC01808180688083E091AB01F091AC01E0
:100C300080818F7D80830E9455082CED35E040E057
:100C400050E00E943B096C507E4F8F4F9F4F0E9497
:100C50003C0261E086E00E94E60161E089E00E94DA
:100C6000E60161E08AE00E94E60161E08BE00E941B
:100C7000E60161E087E00E94E60160E088E00E9412
:100C8000E60193E0E92EF12C23E2C22ED12C36EBC3
:100C9000632E30E0732E42EAA42E40E0B42E50E0E2
:100CA000852E50E0952E60E087E00E949A01C701F2
:100CB0000197F1F761E087E00E949A01C601019770
:100CC000F1F7F3016491F5018491E82FF0E0EE0F64
:100CD000FF1FEA57FF4F8591949100E412E42FE043
:100CE00030E0462F0E947F04611571058105910552
:100CF00029F06F5F7F4F8F4F9F4F9F700E94AF080B
:100D00002DEC3CEC48E652E40E94D5090E94470ACB
:100D10006093950170939601809397019093980149
:100D20006AE070E080E090E00E943C0289E991E096
:100D30000E94EB00892B59F16AE070E080E090E0BE
:100D40000E943C0289E991E00E94C90089831A82CD
:100D500000913A0210913B020F5F1F4FC8010E94A1
:100D60001E03882319F320913602309137028091B7
:100D70003A0290913B02BE016F5F7F4F820F931F3B
:100D80000E94770C10933B0200933A02CFCF409120
:100D90003A0250913B024115510509F400C160919E
:100DA00036027091370289E991E00E948D0042E09D
:100DB00050E06EE271E089E991E00E948D0081E3EC
:100DC00091E00E944C03882309F475C061E086E03D
:100DD0000E949A0160E089E00E949A0161E08AE045
:100DE0000E949A0160E08BE00E949A018091950137
:100DF00090919601A0919701B09198014597A10516
:100E0000B1050CF058C060E086E00E949A0160E0F5
:100E100089E00E949A0160E08AE00E949A0160E005
:100E20008BE00E949A0164EF71E080E090E00E9404
:100E30003C0260E086E00E949A0161E089E00E9445
:100E40009A0160E08AE00E949A0161E08BE00E94D2
:100E50009A0160ED77E080E090E00E943C0260E063
:100E600086E00E949A0160E089E00E949A0160E0B9
:100E70008AE00E949A0160E08BE00E949A0164E699
:100E800070E080E090E00E943C0261E086E00E9419
:100E90009A0160E089E00E949A0160E08AE00E9485
:100EA0009A0160E08BE00E949A0164EF71E080E0BB
:100EB00090E00E943C0284E391E00E944C0388236E
:100EC00081F060E086E00E949A0160E089E00E9483
:100ED0009A0161E08AE00E949A0160E08BE00E9442
:100EE0009A018AE391E00E944C03882381F061E03B
:100EF00086E00E949A0160E089E00E949A0160E029
:100F00008AE00E949A0160E08BE00E949A018FE3E0
:100F100091E00E944C03882381F060E086E00E940B
:100F20009A0161E089E00E949A0160E08AE00E94F3
:100F30009A0161E08BE00E949A0184E491E00E94B2
:100F40004C03882381F060E086E00E949A0160E013
:100F500089E00E949A0160E08AE00E949A0160E0C4
:100F60008BE00E949A0190E080E00E941E03209195
:100F700036023091370281111EC02115310519F05A
:100F8000C9010E941F0B1092370210923602109274
:100F90003B0210923A0210923902109238028114E8
:100FA000910409F480CE0E94F700882309F47BCED7
:100FB0000E94000078CE10923B0210923A0260E349
:100FC00071E0C9010E94770CEACF809136029091BE
:100FD0003702009711F00E941F0B80E291E090937E
:100FE0003D0280933C0280918A0190918B018C5349
:100FF000924071F4E0914F02F09150029081809103
:10100000510280958923808310928B0110928A016E
:1010100008958F929F92AF92BF92CF92DF92EF92FC
:10102000FF92CF93DF93EC01688179818A819B8164
:10103000611571058105910521F464E279ED8BE577
:1010400097E02DE133EF41E050E00E943B09490178
:101050005A019B01AC01A7EAB1E40E945A096B0155
:101060007C01ACEEB4EFA50194010E946809C60EA4
:10107000D71EE81EF91EF7FE06C081E0C81AD10887
:10108000E10880E8F80AC882D982EA82FB82C701B7
:10109000B6019F77DF91CF91FF90EF90DF90CF90D7
:1010A000BF90AF909F908F9008958F929F92AF9234
:1010B000BF92CF92DF92EF92FF9260910001709108
:1010C0000101809102019091030161157105810573
:1010D000910521F464E279ED8BE597E02DE133EFA2
:1010E00041E050E00E943B0949015A019B01AC01DB
:1010F000A7EAB1E40E945A096B017C01ACEEB4EF9F
:10110000A50194010E946809C60ED71EE81EF91EAB
:10111000F7FE06C081E0C81AD108E10880E8F80AA5
:10112000C0920001D0920101E0920201F09203010D
:10113000C701B6019F77FF90EF90DF90CF90BF90EF
:10114000AF909F908F90089560930001709301017C
:1011500080930201909303010895E89409C097FBDE
:101160003EF490958095709561957F4F8F4F9F4F7E
:101170009923A9F0F92F96E9BB279395F6958795C2
:1011800077956795B795F111F8CFFAF4BB0F11F485
:1011900060FF1BC06F5F7F4F8F4F9F4F16C088232C
:1011A00011F096E911C0772321F09EE8872F762F62
:1011B00005C0662371F096E8862F70E060E02AF0A3
:1011C0009A95660F771F881FDAF7880F969587958F
:1011D00097F9089597F99F6780E870E060E00895B7
:1011E0009FEF80EC089500240A941616170618063F
:1011F0000906089500240A9412161306140605061B
:101200000895092E0394000C11F4882352F0BB0FAB
:1012100040F4BF2B11F460FF04C06F5F7F4F8F4F0E
:101220009F4F089557FD9058440F551F59F05F3F49
:1012300071F04795880F97FB991F61F09F3F79F0F8
:1012400087950895121613061406551FF2CF46957A
:10125000F1DF08C0161617061806991FF1CF8695FC
:101260007105610508940895E894BB2766277727E0
:10127000CB0197F90895052E97FB1EF400940E9468
:10128000520957FD07D00E94A40907FC03D04EF471
:101290000C94520950954095309521953F4F4F4FF2
:1012A0005F4F089590958095709561957F4F8F4F12
:1012B0009F4F08950E94C609A59F900DB49F900D61
:1012C000A49F800D911D11240895B7FF0C945A0915
:1012D0000E945A09821B930B08952F923F924F92BE
:1012E0005F926F927F928F929F92AF92BF92CF92B6
:1012F000DF92EF92FF920F931F93CF93DF93CDB7BF
:10130000DEB7CA1BDB0B0FB6F894DEBF0FBECDBF36
:1013100009942A88398848885F846E847D848C8407
:101320009B84AA84B984C884DF80EE80FD800C8110
:101330001B81AA81B981CE0FD11D0FB6F894DEBFF3
:101340000FBECDBFED010895A1E21A2EAA1BBB1B53
:10135000FD010DC0AA1FBB1FEE1FFF1FA217B30781
:10136000E407F50720F0A21BB30BE40BF50B661F97
:10137000771F881F991F1A9469F76095709580955B
:1013800090959B01AC01BD01CF010895A29FB001D2
:10139000B39FC001A39F700D811D1124911DB29FA9
:1013A000700D811D1124911D08950E94E9090C946E
:1013B00001090E94FA0858F00E94F30840F029F44D
:1013C0005F3F29F00C94EA0851110C9435090C94F4
:1013D000F0080E94120968F39923B1F3552391F3A1
:1013E000951B550BBB27AA2762177307840738F094
:1013F0009F5F5F4F220F331F441FAA1FA9F335D0F1
:101400000E2E3AF0E0E832D091505040E695001CA4
:10141000CAF72BD0FE2F29D0660F771F881FBB1F5E
:10142000261737074807AB07B0E809F0BB0B802D3C
:10143000BF01FF2793585F4F3AF09E3F510578F068
:101440000C94EA080C9435095F3FE4F3983ED4F31A
:10145000869577956795B795F7959F5FC9F7880F3C
:10146000911D9695879597F90895E1E0660F771F8E
:10147000881FBB1F621773078407BA0720F0621B1F
:10148000730B840BBA0BEE1F88F7E09508950E944A
:101490004E0A6894B1110C94350908950E941A09F6
:1014A00088F09F5798F0B92F9927B751B0F0E1F025
:1014B000660F771F881F991F1AF0BA95C9F714C0D5
:1014C000B13091F00E943409B1E008950C943409D0
:1014D000672F782F8827B85F39F0B93FCCF386950E
:1014E00077956795B395D9F73EF49095809570956B
:1014F00061957F4F8F4F9F4F0895EE0FFF1F05900F
:10150000F491E02D09940F931F93CF93DF938230D2
:10151000910510F482E090E0E0915D02F0915E02AE
:1015200030E020E0B0E0A0E0309799F421153105DB
:1015300009F44AC0281B390B24303105D8F58A81BB
:101540009B816115710589F1FB0193838283FE0103
:1015500011C0408151810281138148175907E0F081
:101560004817590799F4109761F012960C93129747
:1015700013961C933296CF01DF91CF911F910F915B
:10158000089500935D0210935E02F4CF211531059A
:1015900051F04217530738F0A901DB019A01BD0150
:1015A000DF01F801C1CFEF01F9CF90935E02809384
:1015B0005D02CDCFFE01E20FF31F81939193225084
:1015C000310939832883D7CF20915B0230915C02A7
:1015D000232B41F4209106013091070130935C02E6
:1015E00020935B0220910401309105012115310502
:1015F00041F42DB73EB74091080150910901241BD9
:10160000350BE0915B02F0915C02E217F307A0F466
:101610002E1B3F0B2817390778F0AC014E5F5F4F48
:101620002417350748F04E0F5F1F50935C0240931C
:101630005B02819391939FCFF0E0E0E09CCFCF934A
:10164000DF930097E9F0FC01329713821282A09198
:101650005D02B0915E02ED0130E020E01097A1F450
:1016600020813181820F931F20915B0230915C02B7
:101670002817390709F061C0F0935C02E0935B0220
:10168000DF91CF910895EA01CE17DF07E8F54A818F
:101690005B819E0141155105B1F7E901FB83EA83A6
:1016A00049915991C40FD51FEC17FD0761F4808152
:1016B00091810296840F951FE90199838883828125
:1016C00093819B838A83F0E0E0E012968D919C9158
:1016D00013970097B9F52D913C911197CD01029682
:1016E000820F931F20915B0230915C02281739070B
:1016F00039F6309751F510925E0210925D02B09368
:101700005C02A0935B02BCCFD383C2834081518132
:10171000840F951FC817D90761F44E5F5F4F88810A
:101720009981480F591F518340838A819B819383FC
:1017300082832115310509F0B0CFF0935E02E0936A
:101740005D029ECFFD01DC01C0CF13821282D7CF94
:10175000B0E0A0E0EEEAFBE00C946F098C0100978A
:1017600051F4CB010E94830A8C01C801CDB7DEB7CA
:10177000E0E10C948B09FC01E60FF71F9C0122505D
:101780003109E217F30708F49DC0D901CD91DC912E
:101790001197C617D70798F0C530D10530F3CE01A1
:1017A00004978617970708F3C61BD70B2297C19398
:1017B000D1936D937C93CF010E941F0BD6CF5B0119
:1017C000AC1ABD0A4C018C0E9D1EA0915D02B09119
:1017D0005E02512C412CF12CE12C109731F58091B7
:1017E0005B0290915C028815990509F05CC0461671
:1017F000570608F058C080910401909105010097A8
:1018000041F48DB79EB74091080150910901841BA6
:10181000950BE817F90708F055C0F0935C02E093C8
:101820005B02F90171836083A0CF8D919C91119728
:1018300012966C90129713967C901397A815B90581
:1018400059F56C0142E0C40ED11CCA14DB0420F12E
:10185000AC014A195B09DA011296159780F0628291
:10186000738251834083D9016D937C93E114F10419
:1018700071F0D7011396FC93EE93129776CF2296D0
:101880008C0F9D1FF90191838083F301EFCFF093BB
:101890005E02E0935D0269CF4816590608F42C01F8
:1018A0007D01D3019ACFCB010E94830A7C0100976E
:1018B00049F0AE01B8010E94650CC8010E941F0BDF
:1018C000870153CF10E000E050CFFB01DC0102C0E4
:1018D00001900D9241505040D8F70895FB01DC0172
:1018E0008D91019080190110D9F3990B0895FB0196
:1018F000DC0101900D920020E1F7089510E0C2E6AE
:10190000D0E004C0FE010E947D0A2196C336D107B3
:06191000C9F7F894FFCFB7
:101916000100000000005F028000000000002D01B1
:101926008D00BA007A01EB00C900DD00000000005E
:1019360088028D001B038702E402FA026F020D0A79
:1019460000676F007269676874006C656674006290
:0819560061636B006F6666001F
:00000001FF
