:020000040000FA
:100000000C9463000C948B000C948B000C941304E0
:100010000C9413040C9413040C948B000C948B001C
:100020000C948B000C948B000C948B000C948B0024
:100030000C948B000C948B000C948B000C948B0014
:100040000C94C9030C948B000C9497030C947103CB
:100050000C948B000C948B000C948B000C948B00F4
:100060000C948B000C948B000000000024002700EF
:100070002A0000000008000201000003040700003D
:1000800000000000000000000000230026002900FE
:1000900000000000250028002B00040404040404D0
:1000A0000404020202020202030303030303010227
:1000B00004081020408001020408102001020408F6
:1000C0001020D004300811241FBECFEFD8E0DEBFCF
:1000D000CDBF11E0A0E0B1E0ECEAF9E102C005908B
:1000E0000D92AA34B107D9F722E0AAE4B1E001C029
:1000F0001D92A936B207E1F710E0C2E6D0E004C0D5
:100100002197FE010E94C80AC136D107C9F70E9493
:10011000AA050C94C90C0C940000AF92BF92CF9228
:10012000DF92EF92FF920F931F93CF93DF936C01B7
:100130007B018B01040F151FEB015E01AE18BF0898
:10014000C017D10759F06991D601ED91FC9101904A
:10015000F081E02DC6010995892B79F7C501DF9162
:10016000CF911F910F91FF90EF90DF90CF90BF90B4
:10017000AF900895FC01538D448D252F30E0842FDE
:1001800090E0821B930B541710F0CF9608950197BF
:100190000895FC01918D828D981761F0A28DAE0FAC
:1001A000BF2FB11D5D968C91928D9F5F9F73928F33
:1001B00090E008958FEF9FEF0895FC01918D828D5F
:1001C000981731F0828DE80FF11D858D90E008952C
:1001D0008FEF9FEF0895FC01918D228D892F90E084
:1001E000805C9F4F821B91098F739927089583EA42
:1001F00091E00E94EB0021E0892B09F420E0822F9E
:10020000089580E090E0892B29F00E94F700811189
:100210000C9400000895FC01A48DA80FB92FB11D06
:10022000A35ABF4F2C91848D90E001968F7399272C
:10023000848FA689B7892C93A089B1898C9183700A
:1002400080648C93938D848D981306C00288F38903
:10025000E02D80818F7D80830895EF92FF920F9330
:100260001F93CF93DF93EC0181E0888F9B8D8C8D62
:1002700098131AC0E889F989808185FF15C09FB756
:10028000F894EE89FF896083E889F9898081837019
:10029000806480839FBF81E090E0DF91CF911F91C8
:1002A0000F91FF90EF900895F62E0B8D10E00F5FE9
:1002B0001F4F0F731127E02E8C8D8E110CC00FB6BF
:1002C00007FCFACFE889F989808185FFF5CFCE0157
:1002D0000E940B01F1CFEB8DEC0FFD2FF11DE35AC6
:1002E000FF4FF0829FB7F8940B8FEA89FB898081DA
:1002F0008062CFCFCF93DF93EC01888D8823B9F054
:10030000AA89BB89E889F9898C9185FD03C0808120
:1003100086FD0DC00FB607FCF7CF8C9185FFF2CF9D
:10032000808185FFEDCFCE010E940B01E9CFDF91E7
:10033000CF91089590E0FC01EE58FF4F2491FC010D
:10034000E255FF4F3491FC01E656FF4FE491EE2356
:10035000C9F0222339F0233001F1A8F4213019F13A
:10036000223029F1F0E0EE0FFF1FE057FF4FA5917B
:10037000B4918FB7F894EC91611126C030953E236B
:100380003C938FBF08952730A9F02830C9F024305E
:1003900049F7809180008F7D03C0809180008F7726
:1003A00080938000DFCF84B58F7784BDDBCF84B5A9
:1003B0008F7DFBCF8091B0008F778093B000D2CF3C
:1003C0008091B0008F7DF9CF3E2BDACFCF93DF93B2
:1003D00090E0FC01E255FF4F249186569F4FFC01AF
:1003E00084918823D1F090E0880F991FFC01E8598F
:1003F000FF4FA591B491FC01E057FF4FC591D491F7
:1004000061110EC09FB7F8948C91E22FE0958E2376
:100410008C932881E223E8839FBFDF91CF910895D9
:100420008FB7F894EC91E22BEC938FBFF6CF3FB7E8
:10043000F8948091930190919401A0919501B091CD
:10044000960126B5A89B05C02F3F19F00196A11D66
:10045000B11D3FBFBA2FA92F982F8827BC01CD010E
:10046000620F711D811D911D42E0660F771F881F6D
:10047000991F4A95D1F708958F929F92AF92BF929C
:10048000CF92DF92EF92FF926B017C010E941702E4
:100490004B015C01C114D104E104F104B9F00E94E4
:1004A0001702681979098A099B09683E734081051A
:1004B000910580F321E0C21AD108E108F10888EE25
:1004C000880E83E0981EA11CB11CE4CFFF90EF9032
:1004D000DF90CF90BF90AF909F908F9008952FB7EF
:1004E000F89460918F0170919001809191019091A9
:1004F00092012FBF089520918C0130918D01281712
:10050000390771F490918B0180918A01981741F01D
:10051000E0918B01F0E0E65BFE4F808190E0089572
:100520008FEF9FEF08950895EF92FF920F931F931F
:10053000CF93DF93DC015C96ED90FC905D97E11426
:10054000F10479F481E090E013969C938E931297D6
:1005500090E080E0DF91CF911F910F91FF90EF909D
:1005600008955196ED91FC91529750968C91509729
:10057000982F90950FB75E962C915E97122F127060
:1005800021FD6095F8942081112319F1282B2083F7
:10059000E7012197F1F728E0462F50E0308160FF16
:1005A0001AC0382B3083E7012197F1F7BA0175950E
:1005B0006795215089F7112381F0808189238083F9
:1005C0000FBF5C968D919C910197F1F781E090E0CF
:1005D000C1CF2923DCCF3923E5CF9081892BEFCF01
:1005E00020918C0130918D012817390761F4809199
:1005F0008A0120918B0190E0805C9F4F821B9109C2
:100600008F739927089590E080E0089520918C01E0
:1006100030918D0128173907B9F490918B018091A1
:100620008A01981789F0E0918B01F0E0E65BFE4FBC
:10063000808120918B0130E02F5F3F4F2F73332754
:1006400020938B0190E008958FEF9FEF089590E045
:1006500080E00895CF93DF93EC0180914002909168
:100660004102009759F020914202309143022C1729
:100670003D0720F081E0DF91CF910895BE016F5FCB
:100680007F4F0E94F30B009789F090934102809373
:100690004002D0934302C093420220914402309121
:1006A0004502232B39F7FC011082E4CF80E0E3CF31
:1006B0002091440230914502232B39F421E0FC01C2
:1006C0008081882361F020E00AC0BC018091400253
:1006D000909141020E94B90C21E0892BA1F7822F51
:1006E00008951F920F920FB60F9211242F933F93EC
:1006F0004F935F936F937F938F939F93AF93BF932A
:10070000EF93FF9383EA91E00E940B01FF91EF9139
:10071000BF91AF919F918F917F916F915F914F9119
:100720003F912F910F900FBE0F901F9018951F9221
:100730000F920FB60F9211242F938F939F93EF93E5
:10074000FF93E091B301F091B4018081E091B90190
:10075000F091BA0182FD1BC090818091BC018F5F36
:100760008F732091BD01821741F0E091BC01F0E050
:10077000ED55FE4F958F8093BC01FF91EF919F91B6
:100780008F912F910F900FBE0F901F901895808121
:10079000F4CF1F920F920FB60F9211242F933F9315
:1007A0008F939F93AF93BF9380918F01909190010E
:1007B000A0919101B091920130918E0123E0230F1D
:1007C0002D3758F50196A11DB11D20938E01809300
:1007D0008F0190939001A0939101B0939201809129
:1007E000930190919401A0919501B0919601019689
:1007F000A11DB11D8093930190939401A093950145
:10080000B0939601BF91AF919F918F913F912F919E
:100810000F900FBE0F901F90189526E8230F029699
:10082000A11DB11DD2CF1F920F920FB60F921124AE
:100830002F933F934F935F936F937F938F939F93E8
:10084000AF93BF93EF93FF93E0918C01F0918D01F3
:10085000309749F0A685B7858585968D91FF14C0A0
:100860009C918923A1F4FF91EF91BF91AF919F914A
:100870008F917F916F915F914F913F912F910F9049
:100880000FBE0F901F9018959C91892361F7A38943
:10089000B4899C918589809589238C9386899789D1
:1008A0000197F1F7608D718DA685B785558538E084
:1008B00020E0CB010197F1F7822F90E09595879585
:1008C000282F4C91452309F02068315091F7868DEF
:1008D00081FD209580918A0190E001968F73992780
:1008E00030918B01381799F0A0918A01B0E0A65B96
:1008F000BE4F2C9380938A01828D938D0197F1F7DF
:10090000A389B4898C919589892B8C93ACCF868DE2
:100910008160868FF1CFCF92DF92EF92FF920F939B
:100920001F93E82FF92F05C0015011092109310942
:1009300061F1908196239417B9F305C00150110914
:100940002109310911F1908196239413F7CFC12C1D
:10095000D12CE12CF12C0AC08FEFC81AD80AE80A72
:10096000F80A0C151D052E053F0579F080818623B8
:10097000841791F36C2D7D2D8E2D9F2D1F910F913E
:10098000FF90EF90DF90CF90089560E070E080E0FE
:1009900090E01F910F91FF90EF90DF90CF9008951E
:1009A0001092A6011092A50188EE93E0A0E0B0E0BD
:1009B0008093A7019093A801A093A901B093AA01E5
:1009C0002EE031E03093A4012093A30125EC30E028
:1009D0003093B0012093AF0124EC30E03093B201AA
:1009E0002093B10120EC30E03093B4012093B301A7
:1009F00021EC30E03093B6012093B50122EC30E0D9
:100A00003093B8012093B70126EC30E03093BA015F
:100A10002093B9011092BC011092BD011092BE0149
:100A20001092BF01109249021092480280934A022C
:100A300090934B02A0934C02B0934D0280E291E060
:100A4000909347028093460210925D0210925C02DE
:100A500010925F0210925E02109261021092600288
:100A60001092630210926202609164026E7F6D7F49
:100A7000609364026695617081E068270E949A0124
:100A800061E081E00E94E601EFEAF0E0E491E093AA
:100A90005602EBE9F0E0E491F0E0EE0FFF1FE057C3
:100AA000FF4F85919491909358028093570260E094
:100AB00080E00E94E6018091640281FD04C061E053
:100AC00080E00E949A0110925202EEEAF0E0E49176
:100AD000E0935302EAE9F0E0E491F0E0EE0FFF1F4B
:100AE000EA57FF4F85919491909355028093540259
:100AF0001092410210924002109243021092420260
:100B0000109245021092440290E080E00E942A0375
:100B10002091400230914102811113C0211531050D
:100B200019F0C9010E946A0B109241021092400212
:100B30001092450210924402109243021092420217
:100B40000895109245021092440260E371E0C901D9
:100B50000C94C20CCF93DF9300D0CDB7DEB778945E
:100B600084B5826084BD84B5816084BD85B58260B2
:100B700085BD85B5816085BD80916E008160809363
:100B80006E001092810080918100826080938100CC
:100B900080918100816080938100809180008160DC
:100BA000809380008091B10084608093B100809137
:100BB000B00081608093B00080917A00846080935F
:100BC0007A0080917A00826080937A0080917A0026
:100BD000816080937A0080917A00806880937A00A7
:100BE0001092C100E091B301F091B40182E08083E2
:100BF000E091AF01F091B0011082E091B101F0916C
:100C0000B2018FEC80831092BB01E091B701F091AB
:100C1000B80186E08083E091B501F091B601808152
:100C200080618083E091B501F091B6018081886098
:100C30008083E091B501F091B60180818068808366
:100C4000E091B501F091B60180818F7D80830E9493
:100C5000A0082CED35E040E050E00E9486096C5081
:100C60007E4F8F4F9F4F0E943C0261E086E00E94C2
:100C7000E60161E089E00E94E60161E08AE00E940D
:100C8000E60161E08BE00E94E60161E087E00E94FE
:100C9000E60160E088E00E94E6010E946F02609336
:100CA0009F017093A0018093A1019093A20193E012
:100CB000C92ED12C23E2A22EB12C36EB232E30E00C
:100CC000332E42EA842E40E0942E50E0E52E50E090
:100CD000F52E40909F015090A0016090A10170906E
:100CE000A2010E946F02461A570A680A790A88EE22
:100CF000481683E058066104710408F4DDC083EAF5
:100D000091E00E94EB00892B59F16AE070E080E0ED
:100D100090E00E943C0283EA91E00E94C90089832E
:100D20001A8200914402109145020F5F1F4FC801C3
:100D30000E942A03882319F3209140023091410236
:100D40008091440290914502BE016F5F7F4F820FF8
:100D5000931F0E94C20C1093450200934402CFCF10
:100D600040914402509145024115510509F49AC041
:100D7000609140027091410283EA91E00E948D00EF
:100D800042E050E06EE271E083EA91E00E948D0063
:100D900081E391E00E945803882381F061E086E0BE
:100DA0000E949A0160E089E00E949A0161E08AE075
:100DB0000E949A0160E08BE00E949A0184E391E036
:100DC0000E945803882381F060E086E00E949A0127
:100DD00060E089E00E949A0161E08AE00E949A0145
:100DE00060E08BE00E949A018AE391E00E94580340
:100DF000882381F061E086E00E949A0160E089E04A
:100E00000E949A0160E08AE00E949A0160E08BE013
:100E10000E949A018FE391E00E945803882381F099
:100E200060E086E00E949A0161E089E00E949A01F8
:100E300060E08AE00E949A0161E08BE00E949A01E2
:100E400084E491E00E945803882381F060E086E00A
:100E50000E949A0160E089E00E949A0160E08AE0C5
:100E60000E949A0160E08BE00E949A0190E080E08D
:100E70000E942A0320914002309141028111E6C074
:100E80002115310519F0C9010E946A0B1092410227
:100E900010924002109245021092440210924302B6
:100EA000109242020E946F0260939F017093A00112
:100EB0008093A1019093A20140909B0150909C01CE
:100EC00060909D0170909E010E946F02461A570A21
:100ED000680A790AECED4E16E5E05E0661047104DD
:100EE00008F4A8C060E087E00E949A01C60101975B
:100EF000F1F761E087E00E949A01C5010197F1F7DF
:100F0000F1016491F4018491E82FF0E0EE0FFF1FEE
:100F1000EA57FF4F8591949100E412E42FE030E00E
:100F2000462F0E948B04611571058105910529F0FA
:100F30006F5F7F4F8F4F9F4F9F700E94FA082DEC7D
:100F40003CEC48E652E40E94200A0E94920A2B01DF
:100F50003C014092970150929801609299017092E1
:100F60009A016AE070E080E090E00E943C02F5E1C6
:100F70004F165104610471040CF052C060E086E029
:100F80000E949A0160E089E00E949A0160E08AE094
:100F90000E949A0160E08BE00E949A0164EF71E088
:100FA00080E090E00E943C0260E086E00E949A01AE
:100FB00061E089E00E949A0160E08AE00E949A0163
:100FC00061E08BE00E949A0160ED77E080E090E0C4
:100FD0000E943C0261E086E00E949A0160E089E0A4
:100FE0000E949A0160E08AE00E949A0160E08BE032
:100FF0000E949A0160ED77E080E090E00E943C0260
:1010000060E086E00E949A0160E089E00E949A0117
:1010100060E08AE00E949A0160E08BE00E949A0101
:101020000E946F0260939B0170939C0180939D01CD
:1010300090939E01E114F10409F44BCE0E94F70055
:10104000882309F446CE0E94000043CE1092450248
:101050001092440260E371E0C9010E94C20C22CFE9
:101060008091400290914102009711F00E946A0B1A
:1010700080E291E0909347028093460280918C0138
:1010800090918D018654924071F4E0915902F09153
:101090005A02908180915B0280958923808310920F
:1010A0008D0110928C0108958F929F92AF92BF9202
:1010B000CF92DF92EF92FF92CF93DF93EC016881A2
:1010C00079818A819B81611571058105910521F4E2
:1010D00064E279ED8BE597E02DE133EF41E050E0FC
:1010E0000E94860949015A019B01AC01A7EAB1E4BB
:1010F0000E94A5096B017C01ACEEB4EFA50194013F
:101100000E94B309C60ED71EE81EF91EF7FE06C0E0
:1011100081E0C81AD108E10880E8F80AC882D982BB
:10112000EA82FB82C701B6019F77DF91CF91FF90E2
:10113000EF90DF90CF90BF90AF909F908F900895E9
:101140008F929F92AF92BF92CF92DF92EF92FF92D7
:101150006091000170910101809102019091030161
:10116000611571058105910521F464E279ED8BE546
:1011700097E02DE133EF41E050E00E9486094901FC
:101180005A019B01AC01A7EAB1E40E94A5096B01D9
:101190007C01ACEEB4EFA50194010E94B309C60E28
:1011A000D71EE81EF91EF7FE06C081E0C81AD10856
:1011B000E10880E8F80AC0920001D0920101E092B3
:1011C0000201F0920301C701B6019F77FF90EF90F3
:1011D000DF90CF90BF90AF909F908F9008956093D5
:1011E000000170930101809302019093030108951F
:1011F000E89409C097FB3EF49095809570956195B1
:101200007F4F8F4F9F4F9923A9F0F92F96E9BB2766
:101210009395F695879577956795B795F111F8CFE2
:10122000FAF4BB0F11F460FF1BC06F5F7F4F8F4F4D
:101230009F4F16C0882311F096E911C0772321F043
:101240009EE8872F762F05C0662371F096E8862FDB
:1012500070E060E02AF09A95660F771F881FDAF732
:10126000880F9695879597F9089597F99F6780E875
:1012700070E060E008959FEF80EC089500240A94E8
:101280001616170618060906089500240A94121661
:101290001306140605060895092E0394000C11F494
:1012A000882352F0BB0F40F4BF2B11F460FF04C041
:1012B0006F5F7F4F8F4F9F4F089557FD9058440F9A
:1012C000551F59F05F3F71F04795880F97FB991FA5
:1012D00061F09F3F79F08795089512161306140662
:1012E000551FF2CF4695F1DF08C0161617061806EF
:1012F000991FF1CF86957105610508940895E894CA
:10130000BB2766277727CB0197F90895052E97FB12
:101310001EF400940E949D0957FD07D00E94EF091A
:1013200007FC03D04EF40C949D09509540953095E0
:1013300021953F4F4F4F5F4F089590958095709541
:1013400061957F4F8F4F9F4F08950E94110AA59F6F
:10135000900DB49F900DA49F800D911D11240895B0
:10136000B7FF0C94A5090E94A509821B930B089551
:101370002F923F924F925F926F927F928F929F92A5
:10138000AF92BF92CF92DF92EF92FF920F931F9393
:10139000CF93DF93CDB7DEB7CA1BDB0B0FB6F89444
:1013A000DEBF0FBECDBF09942A88398848885F8484
:1013B0006E847D848C849B84AA84B984C884DF80F5
:1013C000EE80FD800C811B81AA81B981CE0FD11DD9
:1013D0000FB6F894DEBF0FBECDBFED010895A1E2B8
:1013E0001A2EAA1BBB1BFD010DC0AA1FBB1FEE1F9F
:1013F000FF1FA217B307E407F50720F0A21BB30BEA
:10140000E40BF50B661F771F881F991F1A9469F765
:1014100060957095809590959B01AC01BD01CF01C1
:101420000895A29FB001B39FC001A39F700D811DBD
:101430001124911DB29F700D811D1124911D0895DD
:101440000E94340A0C944C090E94450958F00E94ED
:101450003E0940F029F45F3F29F00C943509511101
:101460000C9480090C943B090E945D0968F3992350
:10147000B1F3552391F3951B550BBB27AA27621790
:101480007307840738F09F5F5F4F220F331F441F9D
:10149000AA1FA9F335D00E2E3AF0E0E832D09150D1
:1014A0005040E695001CCAF72BD0FE2F29D0660FBE
:1014B000771F881FBB1F261737074807AB07B0E801
:1014C00009F0BB0B802DBF01FF2793585F4F3AF007
:1014D0009E3F510578F00C9435090C9480095F3FCC
:1014E000E4F3983ED4F3869577956795B795F7958D
:1014F0009F5FC9F7880F911D9695879597F9089575
:10150000E1E0660F771F881FBB1F62177307840710
:10151000BA0720F0621B730B840BBA0BEE1F88F71F
:10152000E09508950E94990A6894B1110C9480097D
:1015300008950E94650988F09F5798F0B92F992760
:10154000B751B0F0E1F0660F771F881F991F1AF0AE
:10155000BA95C9F714C0B13091F00E947F09B1E08B
:1015600008950C947F09672F782F8827B85F39F08A
:10157000B93FCCF3869577956795B395D9F73EF447
:1015800090958095709561957F4F8F4F9F4F0895EF
:10159000EE0FFF1F0590F491E02D09940F931F9318
:1015A000CF93DF938230910510F482E090E0E091D8
:1015B0006702F091680230E020E0B0E0A0E03097F0
:1015C00099F42115310509F44AC0281B390B243040
:1015D0003105D8F58A819B816115710589F1FB017F
:1015E00093838283FE0111C0408151810281138166
:1015F00048175907E0F04817590799F4109761F018
:1016000012960C93129713961C933296CF01DF918A
:10161000CF911F910F910895009367021093680274
:10162000F4CF2115310551F04217530738F0A901C5
:10163000DB019A01BD01DF01F801C1CFEF01F9CF54
:101640009093680280936702CDCFFE01E20FF31FF3
:10165000819391932250310939832883D7CF2091E8
:10166000650230916602232B41F4209106013091EE
:1016700007013093660220936502209104013091A6
:1016800005012115310541F42DB73EB74091080100
:1016900050910901241B350BE0916502F09166021F
:1016A000E217F307A0F42E1B3F0B2817390778F039
:1016B000AC014E5F5F4F2417350748F04E0F5F1F98
:1016C0005093660240936502819391939FCFF0E01F
:1016D000E0E09CCFCF93DF930097E9F0FC013297D5
:1016E00013821282A0916702B0916802ED0130E08E
:1016F00020E01097A1F420813181820F931F209167
:101700006502309166022817390709F061C0F0932D
:101710006602E0936502DF91CF910895EA01CE174A
:10172000DF07E8F54A815B819E0141155105B1F75C
:10173000E901FB83EA8349915991C40FD51FEC1746
:10174000FD0761F4808191810296840F951FE90164
:1017500099838883828193819B838A83F0E0E0E090
:1017600012968D919C9113970097B9F52D913C910C
:101770001197CD010296820F931F2091650230913F
:1017800066022817390739F6309751F5109268022A
:1017900010926702B0936602A0936502BCCFD38318
:1017A000C28340815181840F951FC817D90761F406
:1017B0004E5F5F4F88819981480F591F5183408345
:1017C0008A819B81938382832115310509F0B0CFF3
:1017D000F0936802E09367029ECFFD01DC01C0CF69
:1017E00013821282D7CFB0E0A0E0E9EFFBE00C94C7
:1017F000BA098C01009751F4CB010E94CE0A8C01EA
:10180000C801CDB7DEB7E0E10C94D609FC01E60FC4
:10181000F71F9C0122503109E217F30708F49DC01D
:10182000D901CD91DC911197C617D70798F0C53033
:10183000D10530F3CE0104978617970708F3C61B2E
:10184000D70B2297C193D1936D937C93CF010E94C4
:101850006A0BD6CF5B01AC1ABD0A4C018C0E9D1EE3
:10186000A0916702B0916802512C412CF12CE12C1F
:10187000109731F58091650290916602881599055F
:1018800009F05CC04616570608F058C08091040164
:1018900090910501009741F48DB79EB740910801E2
:1018A00050910901841B950BE817F90708F055C002
:1018B000F0936602E0936502F90171836083A0CF23
:1018C0008D919C91119712966C90129713967C9023
:1018D0001397A815B90559F56C0142E0C40ED11C47
:1018E000CA14DB0420F1AC014A195B09DA01129633
:1018F000159780F06282738251834083D9016D9382
:101900007C93E114F10471F0D7011396FC93EE93EC
:10191000129776CF22968C0F9D1FF90191838083B9
:10192000F301EFCFF0936802E093670269CF4816A6
:10193000590608F42C017D01D3019ACFCB010E94F6
:10194000CE0A7C01009749F0AE01B8010E94B00CAC
:10195000C8010E946A0B870153CF10E000E050CF0E
:10196000FB01DC0102C001900D9241505040D8F7BC
:101970000895FB01DC018D91019080190110D9F3CC
:10198000990B0895FB01DC0101900D920020E1F715
:10199000089510E0C2E6D0E004C0FE010E94C80A2B
:1019A0002196C336D107C9F7F894FFCF0100000094
:1019B000000069028000000000002D018D00BA00C7
:1019C0007A01EB00C900DD000000000094028D00E8
:1019D00027039302F00206037B020D0A00676F00E3
:1019E0007269676874006C656674006261636B009D
:0619F00073746F7000002B
:107E0000112484B714BE81FFF0D085E080938100F7
:107E100082E08093C00088E18093C10086E0809377
:107E2000C20080E18093C4008EE0C9D0259A86E02C
:107E300020E33CEF91E0309385002093840096BBD3
:107E4000B09BFECF1D9AA8958150A9F7CC24DD24C4
:107E500088248394B5E0AB2EA1E19A2EF3E0BF2EE7
:107E6000A2D0813461F49FD0082FAFD0023811F036
:107E7000013811F484E001C083E08DD089C08234E0
:107E800011F484E103C0853419F485E0A6D080C0E4
:107E9000853579F488D0E82EFF2485D0082F10E0AE
:107EA000102F00270E291F29000F111F8ED06801E7
:107EB0006FC0863521F484E090D080E0DECF843638
:107EC00009F040C070D06FD0082F6DD080E0C81688
:107ED00080E7D80618F4F601B7BEE895C0E0D1E017
:107EE00062D089930C17E1F7F0E0CF16F0E7DF06D8
:107EF00018F0F601B7BEE89568D007B600FCFDCFD4
:107F0000A601A0E0B1E02C9130E011968C91119780
:107F100090E0982F8827822B932B1296FA010C0160
:107F200087BEE89511244E5F5F4FF1E0A038BF0790
:107F300051F7F601A7BEE89507B600FCFDCF97BE46
:107F4000E89526C08437B1F42ED02DD0F82E2BD052
:107F50003CD0F601EF2C8F010F5F1F4F84911BD097
:107F6000EA94F801C1F70894C11CD11CFA94CF0C13
:107F7000D11C0EC0853739F428D08EE10CD085E9AC
:107F80000AD08FE07ACF813511F488E018D01DD067
:107F900080E101D065CF982F8091C00085FFFCCF94
:107FA0009093C60008958091C00087FFFCCF809118
:107FB000C00084FD01C0A8958091C6000895E0E648
:107FC000F0E098E1908380830895EDDF803219F02E
:107FD00088E0F5DFFFCF84E1DECF1F93182FE3DFCA
:107FE0001150E9F7F2DF1F91089580E0E8DFEE27F6
:047FF000FF270994CA
:027FFE00040479
:00000001FF
